:1000000071C000008EC000008CC000008AC00000DB
:1000100088C0000086C0000084C0000082C00000CC
:1000200080C000007EC000007CC000007AC00000DC
:1000300078C0000076C0000074C0000072C00000EC
:1000400070C000006EC000006CC000006AC00000FC
:1000500068C0000066C0000064C0000062C000000C
:1000600060C000005EC000005CC000005AC000001C
:1000700058C0000056C0000054C0000052C000002C
:1000800050C000004EC000004CC000004AC000003C
:1000900048C0000046C0000044C0000042C000004C
:1000A00040C000003EC000003CC000003AC000005C
:1000B00038C0000036C0000034C0000032C000006C
:1000C00030C000002EC000002CC000002AC000007C
:1000D00028C0000026C0000024C0000022C000008C
:1000E00020C0000011241FBECFEFD1E2DEBFCDBF84
:1000F00000E00CBF12E0A0E0B2E0EEE1F7E000E0CB
:100100000BBF02C007900D92AE36B107D9F722E0BF
:10011000AEE6B2E001C01D92A537B207E1F7A3D168
:10012000FCC26ECF95B19F70282F207F922B95B97E
:1001300095B19E7F95B995B1926095B935E03A95A4
:10014000F1F7000095B19D7F95B9EFE1F3E03197AC
:10015000F1F700C0000025B1F0E18F9FC00111242C
:10016000922F9F70892B85B985B1826085B935E062
:100170003A95F1F7000085B18D7F85B98FE39FE156
:100180000197F1F700C0000008958FEF84B92FEFB9
:1001900089EF90E0215080409040E1F700C00000DE
:1001A00083E390E0BFDF82E390E0BCDF88E290E091
:1001B000B9DF8CE090E0B6DF86E090E0B3DF81E06D
:1001C00090E0B0CF089595B19F70282F207F922B9B
:1001D00095B995B1916095B995B1926095B935E0B1
:1001E0003A95F1F7000095B19D7F95B9EFE1F3E005
:1001F0003197F1F700C0000025B1F0E18F9FC001F9
:100200001124922F9F70892B85B985B1826085B9A1
:1002100035E03A95F1F7000085B18D7F85B98FE320
:100220009FE10197F1F700C0000008950F931F931D
:10023000CF93DF938C01C0E0D0E002C0C4DF2196F1
:10024000F801EC0FFD1F80818111F8CFDF91CF9174
:100250001F910F910895EF92FF920F931F93CF93E9
:10026000DF937C018B01EB01259606C0F701EC0FB3
:10027000FD1F8081A8DF2196C8010D968C179D0770
:10028000ACF7DF91CF911F910F91FF90EF90089500
:1002900081E048DF8FE39FE10197F1F700C00000A4
:1002A00080E840CF08958EEF82B98FE193E0019707
:1002B000F1F700C0000004990BC09FEF23EC89E028
:1002C000915020408040E1F700C0000081E3089594
:1002D00005990BC09FEF23EC89E0915020408040AE
:1002E000E1F700C0000082E3089506990BC09FEF7C
:1002F00023EC89E0915020408040E1F700C00000ED
:1003000083E308958DEF82B98FE193E00197F1F7D0
:1003100000C0000004990BC09FEF23EC89E09150CE
:1003200020408040E1F700C0000084E30895059973
:100330000BC09FEF23EC89E0915020408040E1F713
:1003400000C0000085E3089506990BC09FEF23ECE1
:1003500089E0915020408040E1F700C0000086E332
:1003600008958BEF82B98FE193E00197F1F700C018
:10037000000004990BC09FEF23EC89E091502040CE
:100380008040E1F700C0000087E3089505990BC0A5
:100390009FEF23EC89E0915020408040E1F700C0BE
:1003A000000088E3089506990BC09FEF23EC89E0D5
:1003B000915020408040E1F700C0000089E308959B
:1003C00087EF82B995E39A95F1F7000004990BC085
:1003D0002FEF83EC99E0215080409040E1F700C07E
:1003E00000008AE2089505990BC02FEF83EC99E095
:1003F000215080409040E1F700C0000080E3089564
:1004000006990BC02FEF83EC99E02150804090407B
:10041000E1F700C0000083E20895089581E606C078
:1004200090EF92B990B1903F09F03DDF8136C1F372
:10043000089582E088B92FEF8BE792E92150804040
:100440009040E1F700C0000018B8089581E088B935
:100450002FEF8BE792E9215080409040E1F700C0F8
:10046000000018B808950F931F93CF93DF93CDB773
:10047000DEB7C655D1090FB6F894DEBF0FBECDBFAB
:100480008FEF87B91FE011B980EF82B97EDE00DF00
:100490008BE2E0E0F2E0DE019C9601900D928A95FD
:1004A000E1F7FE013196DF011D921A95E9F7F999FE
:1004B000FECFCE018C96FC0101900020E9F7319728
:1004C000AF01481B590B60E070E010D1BFEF23ED86
:1004D00040E3B15020404040E1F700C000008DE211
:1004E00092E0A4DE80EC1EDE5FEF89E698E15150D9
:1004F00080409040E1F700C0000000E010E020C024
:100500008DDF80937402AFEFB3EC29E0A150B040CF
:100510002040E1F700C000008091740254DEF80131
:10052000E059FD4F8091740280834FEF53EC89E0D6
:10053000415050408040E1F700C000000F5F1F4F66
:1005400004301105ECF2A4DE9FEFABE4BDE1915065
:10055000A040B040E1F700C000009ADEDE019C96AA
:10056000FD0101900020E9F73197AF014A1B5B0BB9
:1005700060E070E0CE010196A9D000E010E089C0F3
:100580000115110529F410926F0210926E0213C02A
:100590000130110539F48FE090E090936F02809361
:1005A0006E0209C00230110531F48EE190E09093A3
:1005B0006F0280936E023091700280916E02909172
:1005C0006F02E1E0F0E0EC0FFD1FE80FF91F208162
:1005D00032135DC030917102FC01319641E050E070
:1005E0004C0F5D1FE40FF51F2081321350C0309176
:1005F0007202FC013296E40FF51F2081321347C0CE
:10060000209173020396FA01E80FF91F80812813E5
:100610003EC08FE392E00ADE80EC84DD60916E02E2
:1006200070916F02CE01019616DE03DF5FEF8BE75C
:1006300092E9515080409040E1F700C0000028DE70
:1006400088E492E0F3DD80EC6DDDE8DE80937402F7
:10065000BADDAFEFB1EE24E0A150B0402040E1F7A9
:1006600000C000008091740280937402813379F499
:10067000EDDE85E592E0DADD4FEF53ED80E34150AA
:1006800050408040E1F700C00000EDDE13C00F5F76
:100690001F4F033011050CF473CF8DE592E0C6DDDA
:1006A0009FEFA3EDB0E39150A040B040E1F700C050
:1006B0000000D9DECA5ADF4F0FB6F894DEBF0FBE76
:1006C000CDBFDF91CF911F910F910895DC01CB0138
:1006D000FC01F999FECF06C0F2BDE1BDF89A319652
:1006E00000B40D9241505040B8F70895DC01CB01A1
:1006F00002C02D9105D041505040D8F70895262FC3
:10070000F999FECF1FBA92BD81BD20BD0FB6F894F6
:0E071000FA9AF99A0FBE01960895F894FFCF59
:10071E00373934343A4D616E6565736861212C3119
:10072E003233343A526F68616E2E2E2E212C3536AE
:10073E0037383A44616D69616E2E2E2100506C651A
:10074E0061736520456E7465722050696E21005785
:10075E00656C636F6D6520004C6F636B3F50726507
:10076E0073732031004C6F636B6564210057524FD9
:0E077E004E472050415353574F524421000024
:00000001FF
